{
  "contractName": "Chainrenter",
  "abi": [
    {
      "constant": true,
      "inputs": [],
      "name": "rentalExchangeIndex",
      "outputs": [
        {
          "name": "",
          "type": "uint256"
        }
      ],
      "payable": false,
      "stateMutability": "view",
      "type": "function"
    },
    {
      "inputs": [],
      "payable": false,
      "stateMutability": "nonpayable",
      "type": "constructor"
    },
    {
      "anonymous": false,
      "inputs": [
        {
          "indexed": false,
          "name": "id",
          "type": "uint256"
        },
        {
          "indexed": false,
          "name": "info",
          "type": "uint256"
        }
      ],
      "name": "idFromBlockchainEvent",
      "type": "event"
    },
    {
      "anonymous": false,
      "inputs": [
        {
          "indexed": false,
          "name": "idbkchain",
          "type": "uint256"
        },
        {
          "indexed": false,
          "name": "idoftransact",
          "type": "uint256"
        },
        {
          "indexed": false,
          "name": "status",
          "type": "string"
        }
      ],
      "name": "rentalIsStartedByBoth",
      "type": "event"
    },
    {
      "anonymous": false,
      "inputs": [
        {
          "indexed": false,
          "name": "idbkchain",
          "type": "uint256"
        },
        {
          "indexed": false,
          "name": "idoftransact",
          "type": "uint256"
        },
        {
          "indexed": false,
          "name": "status",
          "type": "string"
        }
      ],
      "name": "rentalIsClosedByBoth",
      "type": "event"
    },
    {
      "anonymous": false,
      "inputs": [
        {
          "indexed": false,
          "name": "id",
          "type": "uint256"
        },
        {
          "indexed": false,
          "name": "status",
          "type": "string"
        }
      ],
      "name": "generalInfo",
      "type": "event"
    },
    {
      "anonymous": false,
      "inputs": [
        {
          "indexed": false,
          "name": "id",
          "type": "uint256"
        },
        {
          "indexed": false,
          "name": "sta",
          "type": "uint256"
        }
      ],
      "name": "vottt",
      "type": "event"
    },
    {
      "anonymous": false,
      "inputs": [
        {
          "indexed": false,
          "name": "whatis",
          "type": "string"
        },
        {
          "indexed": false,
          "name": "addrez",
          "type": "uint8"
        },
        {
          "indexed": false,
          "name": "isit",
          "type": "bool"
        }
      ],
      "name": "whatistatus",
      "type": "event"
    },
    {
      "constant": false,
      "inputs": [
        {
          "name": "_itemName",
          "type": "string"
        },
        {
          "name": "_idInCrListingsDb",
          "type": "uint256"
        },
        {
          "name": "_idInTransactsDb",
          "type": "uint256"
        },
        {
          "name": "_rentalStartTime",
          "type": "uint256"
        },
        {
          "name": "_rentalEndTime",
          "type": "uint256"
        },
        {
          "name": "_rentalTotalPrice",
          "type": "uint256"
        },
        {
          "name": "_rentalDeposit",
          "type": "uint256"
        }
      ],
      "name": "addRentalToBlockchain",
      "outputs": [
        {
          "name": "",
          "type": "uint256"
        }
      ],
      "payable": false,
      "stateMutability": "nonpayable",
      "type": "function"
    },
    {
      "constant": false,
      "inputs": [
        {
          "name": "_productId",
          "type": "uint256"
        },
        {
          "name": "_stringForHash",
          "type": "string"
        }
      ],
      "name": "startRentalByLister",
      "outputs": [],
      "payable": false,
      "stateMutability": "nonpayable",
      "type": "function"
    },
    {
      "constant": false,
      "inputs": [
        {
          "name": "_productId",
          "type": "uint256"
        },
        {
          "name": "_stringForHash",
          "type": "string"
        }
      ],
      "name": "startRentalByBorrower",
      "outputs": [],
      "payable": true,
      "stateMutability": "payable",
      "type": "function"
    },
    {
      "constant": false,
      "inputs": [
        {
          "name": "_productId",
          "type": "uint256"
        }
      ],
      "name": "closeRentalByLister",
      "outputs": [],
      "payable": false,
      "stateMutability": "nonpayable",
      "type": "function"
    },
    {
      "constant": false,
      "inputs": [
        {
          "name": "_productId",
          "type": "uint256"
        }
      ],
      "name": "closeRentalByBorrower",
      "outputs": [],
      "payable": false,
      "stateMutability": "nonpayable",
      "type": "function"
    },
    {
      "constant": false,
      "inputs": [
        {
          "name": "_productId",
          "type": "uint256"
        }
      ],
      "name": "getBalance",
      "outputs": [
        {
          "name": "",
          "type": "uint256"
        }
      ],
      "payable": false,
      "stateMutability": "nonpayable",
      "type": "function"
    },
    {
      "constant": false,
      "inputs": [
        {
          "name": "_productId",
          "type": "uint256"
        },
        {
          "name": "message",
          "type": "string"
        }
      ],
      "name": "contestTransactionAddEscrow",
      "outputs": [],
      "payable": false,
      "stateMutability": "nonpayable",
      "type": "function"
    },
    {
      "constant": false,
      "inputs": [
        {
          "name": "_productId",
          "type": "uint256"
        },
        {
          "name": "reverseOrCompleteTransaction",
          "type": "uint256"
        }
      ],
      "name": "arbiterVoteEscrow",
      "outputs": [],
      "payable": false,
      "stateMutability": "nonpayable",
      "type": "function"
    },
    {
      "constant": false,
      "inputs": [
        {
          "name": "_productId",
          "type": "uint256"
        }
      ],
      "name": "getStartVotes",
      "outputs": [
        {
          "name": "",
          "type": "uint256"
        }
      ],
      "payable": false,
      "stateMutability": "nonpayable",
      "type": "function"
    },
    {
      "constant": true,
      "inputs": [
        {
          "name": "_productId",
          "type": "uint256"
        }
      ],
      "name": "getRental",
      "outputs": [
        {
          "name": "",
          "type": "uint256"
        },
        {
          "name": "",
          "type": "string"
        },
        {
          "name": "",
          "type": "uint256"
        },
        {
          "name": "",
          "type": "uint256"
        },
        {
          "name": "",
          "type": "uint256"
        },
        {
          "name": "",
          "type": "uint256"
        },
        {
          "name": "",
          "type": "uint256"
        },
        {
          "name": "",
          "type": "uint256"
        },
        {
          "name": "",
          "type": "uint8"
        }
      ],
      "payable": false,
      "stateMutability": "view",
      "type": "function"
    }
  ],
  "bytecode": "0x608060405234801561001057600080fd5b50600080819055506129ac806100276000396000f3fe60806040526004361061009c5760003560e01c80636303baf4116100645780636303baf41461035a578063652bd29e146103855780636b340cad1461047f578063a950bbbf14610544578063b51771871461057f578063d7df3e4b146105ce5761009c565b80631e010439146100a1578063269a91a1146100f05780633b36ba5314610208578063402b3ad21461024d5780634eef4c3e14610288575b600080fd5b3480156100ad57600080fd5b506100da600480360360208110156100c457600080fd5b81019080803590602001909291905050506106a0565b6040518082815260200191505060405180910390f35b3480156100fc57600080fd5b506101f2600480360360e081101561011357600080fd5b810190808035906020019064010000000081111561013057600080fd5b82018360208201111561014257600080fd5b8035906020019184600183028401116401000000008311171561016457600080fd5b91908080601f016020809104026020016040519081016040528093929190818152602001838380828437600081840152601f19601f820116905080830192505050505050509192919290803590602001909291908035906020019092919080359060200190929190803590602001909291908035906020019092919080359060200190929190505050610748565b6040518082815260200191505060405180910390f35b34801561021457600080fd5b5061024b6004803603604081101561022b57600080fd5b8101908080359060200190929190803590602001909291905050506109c8565b005b34801561025957600080fd5b506102866004803603602081101561027057600080fd5b8101908080359060200190929190505050610c0c565b005b34801561029457600080fd5b50610358600480360360408110156102ab57600080fd5b8101908080359060200190929190803590602001906401000000008111156102d257600080fd5b8201836020820111156102e457600080fd5b8035906020019184600183028401116401000000008311171561030657600080fd5b91908080601f016020809104026020016040519081016040528093929190818152602001838380828437600081840152601f19601f820116905080830192505050505050509192919290505050610f6a565b005b34801561036657600080fd5b5061036f610f6e565b6040518082815260200191505060405180910390f35b34801561039157600080fd5b506103be600480360360208110156103a857600080fd5b8101908080359060200190929190505050610f74565b604051808a8152602001806020018981526020018881526020018781526020018681526020018581526020018481526020018360038111156103fc57fe5b60ff16815260200182810382528a818151815260200191508051906020019080838360005b8381101561043c578082015181840152602081019050610421565b50505050905090810190601f1680156104695780820380516001836020036101000a031916815260200191505b509a505050505050505050505060405180910390f35b6105426004803603604081101561049557600080fd5b8101908080359060200190929190803590602001906401000000008111156104bc57600080fd5b8201836020820111156104ce57600080fd5b803590602001918460018302840111640100000000831117156104f057600080fd5b91908080601f016020809104026020016040519081016040528093929190818152602001838380828437600081840152601f19601f8201169050808301925050505050505091929192905050506111e6565b005b34801561055057600080fd5b5061057d6004803603602081101561056757600080fd5b81019080803590602001909291905050506115e7565b005b34801561058b57600080fd5b506105b8600480360360208110156105a257600080fd5b8101908080359060200190929190505050611945565b6040518082815260200191505060405180910390f35b3480156105da57600080fd5b5061069e600480360360408110156105f157600080fd5b81019080803590602001909291908035906020019064010000000081111561061857600080fd5b82018360208201111561062a57600080fd5b8035906020019184600183028401116401000000008311171561064c57600080fd5b91908080601f016020809104026020016040519081016040528093929190818152602001838380828437600081840152601f19601f820116905080830192505050505050509192919290505050611bab565b005b60007f81be6a6883b33f5314644ca51915a0b2ad59c9867ea8f8947e2c5dc677782e7e3073ffffffffffffffffffffffffffffffffffffffff16316040518082815260200180602001828103825260188152602001807f63616c6c2062616c616e6365206f6620636f6e747261637400000000000000008152506020019250505060405180910390a13073ffffffffffffffffffffffffffffffffffffffff16319050919050565b600083851061075657600080fd5b6001600080828254019250508190555061076e612694565b604051806101e0016040528060005481526020018a8152602001898152602001888152602001878152602001868152602001858152602001848152602001600073ffffffffffffffffffffffffffffffffffffffff1681526020013373ffffffffffffffffffffffffffffffffffffffff168152602001600060038111156107f257fe5b815260200160008152602001600081526020016000801b815260200160008152509050806001600080548152602001908152602001600020600082015181600001556020820151816001019080519060200190610850929190612744565b5060408201518160020155606082015181600301556080820151816004015560a0820151816005015560c0820151816006015560e082015181600701556101008201518160080160006101000a81548173ffffffffffffffffffffffffffffffffffffffff021916908373ffffffffffffffffffffffffffffffffffffffff1602179055506101208201518160090160006101000a81548173ffffffffffffffffffffffffffffffffffffffff021916908373ffffffffffffffffffffffffffffffffffffffff1602179055506101408201518160090160146101000a81548160ff0219169083600381111561094257fe5b021790555061016082015181600c015561018082015181600d01556101a082015181600e01556101c082015181600f01559050507fbbd0748ee68e9c13e476ae112c41cf24a5d80f23a708d07bdcfe0b348892b62960005488604051808381526020018281526020019250505060405180910390a1600054915050979650505050505050565b6109d0612694565b60016000848152602001908152602001600020604051806101e001604052908160008201548152602001600182018054600181600116156101000203166002900480601f016020809104026020016040519081016040528092919081815260200182805460018160011615610100020316600290048015610a925780601f10610a6757610100808354040283529160200191610a92565b820191906000526020600020905b815481529060010190602001808311610a7557829003601f168201915b505050505081526020016002820154815260200160038201548152602001600482015481526020016005820154815260200160068201548152602001600782015481526020016008820160009054906101000a900473ffffffffffffffffffffffffffffffffffffffff1673ffffffffffffffffffffffffffffffffffffffff1673ffffffffffffffffffffffffffffffffffffffff1681526020016009820160009054906101000a900473ffffffffffffffffffffffffffffffffffffffff1673ffffffffffffffffffffffffffffffffffffffff1673ffffffffffffffffffffffffffffffffffffffff1681526020016009820160149054906101000a900460ff166003811115610ba157fe5b6003811115610bac57fe5b8152602001600c8201548152602001600d8201548152602001600e8201548152602001600f8201548152505090506001821415610bfd57600281610180018181525050610bf883611e65565b610c07565b610c068361214f565b5b505050565b60006001600083815260200190815260200160002090507f81be6a6883b33f5314644ca51915a0b2ad59c9867ea8f8947e2c5dc677782e7e826040518082815260200180602001828103825260128152602001807f636c6f736520626f7272207374616765203100000000000000000000000000008152506020019250505060405180910390a16000151581600b0160003373ffffffffffffffffffffffffffffffffffffffff1673ffffffffffffffffffffffffffffffffffffffff16815260200190815260200160002060009054906101000a900460ff16151514610d3e576040517f08c379a000000000000000000000000000000000000000000000000000000000815260040180806020018281038252602881526020018061281a6028913960400191505060405180910390fd5b3373ffffffffffffffffffffffffffffffffffffffff168160090160009054906101000a900473ffffffffffffffffffffffffffffffffffffffff1673ffffffffffffffffffffffffffffffffffffffff1614610e03576040517f08c379a00000000000000000000000000000000000000000000000000000000081526004018080602001828103825260178152602001807f53656e646572206973206e6f7420626f72726f7765722e00000000000000000081525060200191505060405180910390fd5b60016003811115610e1057fe5b8160090160149054906101000a900460ff166003811115610e2d57fe5b14610e83576040517f08c379a000000000000000000000000000000000000000000000000000000000815260040180806020018281038252602581526020018061292e6025913960400191505060405180910390fd5b600181600d01540181600d0181905550600181600b0160003373ffffffffffffffffffffffffffffffffffffffff1673ffffffffffffffffffffffffffffffffffffffff16815260200190815260200160002060006101000a81548160ff0219169083151502179055507f81be6a6883b33f5314644ca51915a0b2ad59c9867ea8f8947e2c5dc677782e7e826040518082815260200180602001828103825260128152602001807f636c6f736520626f7272207374616765203200000000000000000000000000008152506020019250505060405180910390a1610f6682611e65565b5050565b5050565b60005481565b600060606000806000806000806000610f8b612694565b600160008c8152602001908152602001600020604051806101e001604052908160008201548152602001600182018054600181600116156101000203166002900480601f01602080910402602001604051908101604052809291908181526020018280546001816001161561010002031660029004801561104d5780601f106110225761010080835404028352916020019161104d565b820191906000526020600020905b81548152906001019060200180831161103057829003601f168201915b505050505081526020016002820154815260200160038201548152602001600482015481526020016005820154815260200160068201548152602001600782015481526020016008820160009054906101000a900473ffffffffffffffffffffffffffffffffffffffff1673ffffffffffffffffffffffffffffffffffffffff1673ffffffffffffffffffffffffffffffffffffffff1681526020016009820160009054906101000a900473ffffffffffffffffffffffffffffffffffffffff1673ffffffffffffffffffffffffffffffffffffffff1673ffffffffffffffffffffffffffffffffffffffff1681526020016009820160149054906101000a900460ff16600381111561115c57fe5b600381111561116757fe5b8152602001600c8201548152602001600d8201548152602001600e8201548152602001600f820154815250509050806000015181602001518260400151836060015184608001518560a001518660c001518760e00151886101400151879750995099509950995099509950995099509950509193959799909294969850565b60006001600084815260200190815260200160002090506000151581600a0160003373ffffffffffffffffffffffffffffffffffffffff1673ffffffffffffffffffffffffffffffffffffffff16815260200190815260200160002060009054906101000a900460ff161515146112a8576040517f08c379a000000000000000000000000000000000000000000000000000000000815260040180806020018281038252602e815260200180612953602e913960400191505060405180910390fd5b8060090160009054906101000a900473ffffffffffffffffffffffffffffffffffffffff1673ffffffffffffffffffffffffffffffffffffffff163373ffffffffffffffffffffffffffffffffffffffff161461136d576040517f08c379a00000000000000000000000000000000000000000000000000000000081526004018080602001828103825260178152602001807f53656e646572206973206e6f7420626f72726f7765722e00000000000000000081525060200191505060405180910390fd5b6000816007015482600601540190503482600f0181905550803410156113de576040517f08c379a000000000000000000000000000000000000000000000000000000000815260040180806020018281038252602a815260200180612898602a913960400191505060405180910390fd5b7f81be6a6883b33f5314644ca51915a0b2ad59c9867ea8f8947e2c5dc677782e7e8160405180828152602001806020018281038252602e81526020018061286a602e91396040019250505060405180910390a17f81be6a6883b33f5314644ca51915a0b2ad59c9867ea8f8947e2c5dc677782e7e346040518082815260200180602001828103825260488152602001806128e6604891396060019250505060405180910390a1826040516020018082805190602001908083835b602083106114bb5780518252602082019150602081019050602083039250611498565b6001836020036101000a0380198251168184511680821785525050505050509050019150506040516020818303038152906040528051906020012082600e0181905550600182600c01540182600c01819055507f81be6a6883b33f5314644ca51915a0b2ad59c9867ea8f8947e2c5dc677782e7e846040518082815260200180602001828103825260178152602001807f7374617274656420626f727220706173737365642069660000000000000000008152506020019250505060405180910390a1600182600a0160003373ffffffffffffffffffffffffffffffffffffffff1673ffffffffffffffffffffffffffffffffffffffff16815260200190815260200160002060006101000a81548160ff0219169083151502179055506115e184612469565b50505050565b60006001600083815260200190815260200160002090507f81be6a6883b33f5314644ca51915a0b2ad59c9867ea8f8947e2c5dc677782e7e826040518082815260200180602001828103825260138152602001807f6c6f7365206c69737465722073746167652031000000000000000000000000008152506020019250505060405180910390a16000151581600b0160003373ffffffffffffffffffffffffffffffffffffffff1673ffffffffffffffffffffffffffffffffffffffff16815260200190815260200160002060009054906101000a900460ff16151514611719576040517f08c379a000000000000000000000000000000000000000000000000000000000815260040180806020018281038252602881526020018061281a6028913960400191505060405180910390fd5b3373ffffffffffffffffffffffffffffffffffffffff168160080160009054906101000a900473ffffffffffffffffffffffffffffffffffffffff1673ffffffffffffffffffffffffffffffffffffffff16146117de576040517f08c379a00000000000000000000000000000000000000000000000000000000081526004018080602001828103825260158152602001807f53656e646572206973206e6f74206c69737465722e000000000000000000000081525060200191505060405180910390fd5b600160038111156117eb57fe5b8160090160149054906101000a900460ff16600381111561180857fe5b1461185e576040517f08c379a000000000000000000000000000000000000000000000000000000000815260040180806020018281038252602581526020018061292e6025913960400191505060405180910390fd5b7f81be6a6883b33f5314644ca51915a0b2ad59c9867ea8f8947e2c5dc677782e7e826040518082815260200180602001828103825260148152602001807f636c6f7365206c697374657220737461676520320000000000000000000000008152506020019250505060405180910390a1600181600d01540181600d0181905550600181600b0160003373ffffffffffffffffffffffffffffffffffffffff1673ffffffffffffffffffffffffffffffffffffffff16815260200190815260200160002060006101000a81548160ff02191690831515021790555061194182611e65565b5050565b600061194f612694565b60016000848152602001908152602001600020604051806101e001604052908160008201548152602001600182018054600181600116156101000203166002900480601f016020809104026020016040519081016040528092919081815260200182805460018160011615610100020316600290048015611a115780601f106119e657610100808354040283529160200191611a11565b820191906000526020600020905b8154815290600101906020018083116119f457829003601f168201915b505050505081526020016002820154815260200160038201548152602001600482015481526020016005820154815260200160068201548152602001600782015481526020016008820160009054906101000a900473ffffffffffffffffffffffffffffffffffffffff1673ffffffffffffffffffffffffffffffffffffffff1673ffffffffffffffffffffffffffffffffffffffff1681526020016009820160009054906101000a900473ffffffffffffffffffffffffffffffffffffffff1673ffffffffffffffffffffffffffffffffffffffff1673ffffffffffffffffffffffffffffffffffffffff1681526020016009820160149054906101000a900460ff166003811115611b2057fe5b6003811115611b2b57fe5b8152602001600c8201548152602001600d8201548152602001600e8201548152602001600f8201548152505090507fa1fb4190108aebb077f9216e216e601965838374cb6f2eae82ec6236e65f3f8b83826101600151604051808381526020018281526020019250505060405180910390a1806101600151915050919050565b60006001600084815260200190815260200160002090506000151581600a0160003373ffffffffffffffffffffffffffffffffffffffff1673ffffffffffffffffffffffffffffffffffffffff16815260200190815260200160002060009054906101000a900460ff16151514611c6d576040517f08c379a000000000000000000000000000000000000000000000000000000000815260040180806020018281038252602e815260200180612953602e913960400191505060405180910390fd5b80600e0154826040516020018082805190602001908083835b60208310611ca95780518252602082019150602081019050602083039250611c86565b6001836020036101000a0380198251168184511680821785525050505050509050019150506040516020818303038152906040528051906020012014611d3a576040517f08c379a00000000000000000000000000000000000000000000000000000000081526004018080602001828103825260308152602001806127ea6030913960400191505060405180910390fd5b7f81be6a6883b33f5314644ca51915a0b2ad59c9867ea8f8947e2c5dc677782e7e836040518082815260200180602001828103825260168152602001807f73746172746564206c69737420706173736564206966000000000000000000008152506020019250505060405180910390a1338160080160006101000a81548173ffffffffffffffffffffffffffffffffffffffff021916908373ffffffffffffffffffffffffffffffffffffffff160217905550600181600c01540181600c0181905550600181600a0160003373ffffffffffffffffffffffffffffffffffffffff1673ffffffffffffffffffffffffffffffffffffffff16815260200190815260200160002060006101000a81548160ff021916908315150217905550611e6083612469565b505050565b60006001600083815260200190815260200160002090507f81be6a6883b33f5314644ca51915a0b2ad59c9867ea8f8947e2c5dc677782e7e826040518082815260200180602001828103825260158152602001807f636f6d706c65746520626f7468207374616765203100000000000000000000008152506020019250505060405180910390a17f81be6a6883b33f5314644ca51915a0b2ad59c9867ea8f8947e2c5dc677782e7e3073ffffffffffffffffffffffffffffffffffffffff16316040518082815260200180602001828103825260188152602001807f787878302062616c616e6365206f6620636f6e747261637400000000000000008152506020019250505060405180910390a1600281600d0154141561214b5760028160090160146101000a81548160ff02191690836003811115611fa157fe5b02179055507fc09371d12129ebb3151103e7a11ad9a4e1c591bfd92269bf0f1510d0e0c5ad5d8282600301546040518083815260200182815260200180602001828103825260158152602001807f636f6d706c65746520626f746820737461676520320000000000000000000000815250602001935050505060405180910390a16000816006015482600f01540390508160090160009054906101000a900473ffffffffffffffffffffffffffffffffffffffff1673ffffffffffffffffffffffffffffffffffffffff168160405180600001905060006040518083038185875af1925050503d80600081146120b3576040519150601f19603f3d011682016040523d82523d6000602084013e6120b8565b606091505b5050508160080160009054906101000a900473ffffffffffffffffffffffffffffffffffffffff1673ffffffffffffffffffffffffffffffffffffffff16826006015460405180600001905060006040518083038185875af1925050503d8060008114612141576040519150601f19603f3d011682016040523d82523d6000602084013e612146565b606091505b505050505b5050565b612157612694565b60016000838152602001908152602001600020604051806101e001604052908160008201548152602001600182018054600181600116156101000203166002900480601f0160208091040260200160405190810160405280929190818152602001828054600181600116156101000203166002900480156122195780601f106121ee57610100808354040283529160200191612219565b820191906000526020600020905b8154815290600101906020018083116121fc57829003601f168201915b505050505081526020016002820154815260200160038201548152602001600482015481526020016005820154815260200160068201548152602001600782015481526020016008820160009054906101000a900473ffffffffffffffffffffffffffffffffffffffff1673ffffffffffffffffffffffffffffffffffffffff1673ffffffffffffffffffffffffffffffffffffffff1681526020016009820160009054906101000a900473ffffffffffffffffffffffffffffffffffffffff1673ffffffffffffffffffffffffffffffffffffffff1673ffffffffffffffffffffffffffffffffffffffff1681526020016009820160149054906101000a900460ff16600381111561232857fe5b600381111561233357fe5b8152602001600c8201548152602001600d8201548152602001600e8201548152602001600f8201548152505090506003816101400190600381111561237457fe5b9081600381111561238157fe5b815250507f81be6a6883b33f5314644ca51915a0b2ad59c9867ea8f8947e2c5dc677782e7e8260405180828152602001806020018281038252601b8152602001807f636f6e7465737465644661696c656420202d726566756e64696e6700000000008152506020019250505060405180910390a180610120015173ffffffffffffffffffffffffffffffffffffffff16816101c0015160405180600001905060006040518083038185875af1925050503d806000811461245d576040519150601f19603f3d011682016040523d82523d6000602084013e612462565b606091505b5050505050565b60006001600083815260200190815260200160002090507f81be6a6883b33f5314644ca51915a0b2ad59c9867ea8f8947e2c5dc677782e7e8260405180828152602001806020018281038252601f8152602001807f626f74682063616c6c6564202d2d206e6f74206e656365736172696c792032008152506020019250505060405180910390a16000816007015482600601540190507f81be6a6883b33f5314644ca51915a0b2ad59c9867ea8f8947e2c5dc677782e7e3073ffffffffffffffffffffffffffffffffffffffff16316040518082815260200180602001828103825260248152602001806128c2602491396040019250505060405180910390a17f81be6a6883b33f5314644ca51915a0b2ad59c9867ea8f8947e2c5dc677782e7e81604051808281526020018060200182810382526028815260200180612842602891396040019250505060405180910390a1600282600c01541480156125e75750803073ffffffffffffffffffffffffffffffffffffffff163110155b1561268f5760018260090160146101000a81548160ff0219169083600381111561260d57fe5b02179055507f10fb1e623f2cd833df18e5d49d950be8185dacd19f7edc7da8205b1c6298450e83836003015460405180838152602001828152602001806020018281038252600c8152602001807f7374617274656420626f74680000000000000000000000000000000000000000815250602001935050505060405180910390a15b505050565b604051806101e001604052806000815260200160608152602001600081526020016000815260200160008152602001600081526020016000815260200160008152602001600073ffffffffffffffffffffffffffffffffffffffff168152602001600073ffffffffffffffffffffffffffffffffffffffff1681526020016000600381111561271f57fe5b8152602001600081526020016000815260200160008019168152602001600081525090565b828054600181600116156101000203166002900490600052602060002090601f016020900481019282601f1061278557805160ff19168380011785556127b3565b828001600101855582156127b3579182015b828111156127b2578251825591602001919060010190612797565b5b5090506127c091906127c4565b5090565b6127e691905b808211156127e25760008160009055506001016127ca565b5090565b9056fe596f75722070617373776f726420646f6573206e6f74206d61746368207768617420626f72726f7765722073656e742e53656e64657220616c726561647920747269656420746f20636f6d706c6574652072656e74616c2e746f74616c6c20616d6f756e74207265717569726564206465706f73697420616e6420707269636570726576696f757320697320636f6d6269626564207072696365202d2d207374617274656420626f72722074727953656e64657220626f72726f77657220686173206e6f742073656e6420656e6f7567682065746865722e6265666f7265206e756d6265722069732062616c616e6365206f6620636f6e747261637470726576696f7573206973206d73672e76616c652c2073686f756c6420626520626967676572207468616e20636f6d62696e6564202d2d207374617274656420626f72722074727972656e74616c20737461747573206d757374206265207374617274656420616c726164792e53656e64657220616c72656164792073656e74206d6f6e657920616e642061677265656420746f2073746172742ea165627a7a723058206ff1031b8c8e518e1bb057abd1d2f6f902627ab6e444e7c92ff42f7f131a54920029",
  "source": "pragma solidity >=0.4.21 <0.6.0;\n\n\ncontract Chainrenter {\n enum RentalStatus {Ready, Started, Completed, Contested}\n\n uint public rentalExchangeIndex;\n mapping (uint => RentalExchange) rentalById;\n mapping (uint => address) borrowerAddressByIndex;\n\n struct RentalExchange {\n  uint id; //rentalExchangeIndex\n  string itemName;\n  uint idInCrListingsDb;\n  uint idInTransactsDb;\n  uint rentalStartTime;\n  uint rentalEndTime;\n  uint rentalTotalPrice;\n  uint rentalDeposit;\n  address payable lister;\n  address payable borrower;\n  RentalStatus status;\n  mapping (address => bool) startVotedAlready;  //map address to wheter voted already\n  mapping (address => bool) completeVotedAlready;\n  uint startVotes;\n  uint completeVotes; //requires 2 votes from lister / borrower to end rental\n  bytes32 randomStringHash;  \n  // maybe most secure to ASK for random string before it goes live -- then remember this -- \n  //THEN ask for it when its time to start and close \n  uint amountSentByBorrower;\n }\n\n constructor() public {\n  rentalExchangeIndex = 0;\n }\n \nevent idFromBlockchainEvent(\n       uint id,\n       uint info\n    );\n    \nevent rentalIsStartedByBoth(\n   uint idbkchain,\n   uint idoftransact,\n   string status\n);\n\nevent rentalIsClosedByBoth(\n   uint idbkchain,\n   uint idoftransact,\n   string status\n);\n\nevent generalInfo(\n   uint id,\n   string status\n);\n\nevent vottt(\n   uint id,\n   uint sta\n);\n\n// event addrezzz(\n//     address aa,\n//     address bb,\n//     string info\n// );\n\nevent whatistatus(\n   string whatis,\n   RentalStatus addrez,\n   bool isit\n);\n    \n // was here: string memory _stringForHash\n function addRentalToBlockchain(string memory _itemName, uint _idInCrListingsDb, uint _idInTransactsDb, uint _rentalStartTime, \n      uint _rentalEndTime, uint _rentalTotalPrice, uint _rentalDeposit) public returns (uint) {\n      require (_rentalStartTime < _rentalEndTime);\n      rentalExchangeIndex += 1;\n      \n      \n      //in reall use keecacck happens in frontened so can just be removed here\n      //was here keccak256(abi.encodePacked(_stringForHash))\n      \n      RentalExchange memory rental = RentalExchange(rentalExchangeIndex, _itemName, _idInCrListingsDb, _idInTransactsDb, _rentalStartTime, _rentalEndTime, _rentalTotalPrice,\n                      _rentalDeposit, address(0), msg.sender, RentalStatus.Ready,0,0,0,0);\n      rentalById[rentalExchangeIndex] = rental;\n      //pass id from transacts to make sure we have right transaction in frontned filter\n      emit idFromBlockchainEvent(rentalExchangeIndex, _idInTransactsDb);\n      return (rentalExchangeIndex);  //also maybe send a random code for the lister to send\n\n    }\n\n    // function addRentalToBlockchain(string memory _stringForHash) public returns (uint) {\n     \n    // //   rentalById[rentalExchangeIndex] = rental;\n    //   return (5);  //also maybe send a random code for the lister to send\n\n    // }\n \n//BOTH BELOW MUST HAPPEN TO START \nfunction startRentalByLister(uint _productId, string memory _stringForHash) public {\n    \n    RentalExchange storage rental = rentalById[_productId];\n    \n    require(\n        rental.startVotedAlready[msg.sender] == false,\n        \"Sender already sent money and agreed to start.\"\n    );\n    \n    //TODO remove this keecak -- because we should recieved already hashed value\n    require(\n        keccak256(abi.encodePacked(_stringForHash)) == rental.randomStringHash,\n        \"Your password does not match what borrower sent.\"\n    );\n    \n    // if (rental.startVotedAlready[msg.sender]){\n    //     emit generalInfo(_productId,\"voted alraedy lister\");\n\n    //     return;\n    // }\n    \n\n    //TODO remove this keecak -- because we should recieved already hashed value\n    // if (keccak256(abi.encodePacked(_stringForHash)) == rental.randomStringHash){\n        emit generalInfo(_productId,\"started list passed if\");\n        rental.lister = msg.sender;\n        rental.startVotes = rental.startVotes +1;\n        rental.startVotedAlready[msg.sender]=true;\n        startRentalBoth(_productId);\n        \n    // }\n}\n\nfunction startRentalByBorrower(uint _productId, string memory _stringForHash ) payable public  {\n    RentalExchange storage rental = rentalById[_productId];\n    require(\n        rental.startVotedAlready[msg.sender] == false,\n        \"Sender already sent money and agreed to start.\"\n    );\n     require(\n        msg.sender == rental.borrower,\n        \"Sender is not borrower.\"\n    );\n    \n    uint price = rental.rentalTotalPrice+rental.rentalDeposit;\n    rental.amountSentByBorrower = msg.value;\n    \n    require(\n       msg.value >= price,\n        \"Sender borrower has not send enough ether.\"\n    );\n    \n    // if (rental.startVotedAlready[msg.sender]){\n    //     emit generalInfo(_productId,\"voted alraedy borr\");\n    //     // msg.sender.transfer(msg.value);\n    //     msg.sender.call.value(msg.value)(\"\");\n\n        \n\n    //     return;\n    // }\n    \n\n    emit generalInfo(price,\"previous is combibed price -- started borr try\");\n    emit generalInfo(msg.value,\"previous is msg.vale, should be bigger than combined -- started borr try\");\n\n    rental.randomStringHash = keccak256(abi.encodePacked(_stringForHash));\n\n    rental.startVotes = rental.startVotes +1;\n    emit generalInfo(_productId,\"started borr passsed if\");\n    rental.startVotedAlready[msg.sender]=true;\n    startRentalBoth(_productId);\n    \n    //check to make sure its same address who started it and that they send the right amount\n    // if (msg.sender == rental.borrower && msg.value >= price){\n        \n    //     //TODO remove this keecak -- because we should recieved already hashed value\n    //     rental.randomStringHash = keccak256(abi.encodePacked(_stringForHash));\n\n    //     rental.startVotes = rental.startVotes +1;\n    //     emit generalInfo(_productId,\"started borr passsed if\");\n    //     rental.startVotedAlready[msg.sender]=true;\n    //     startRentalBoth(_productId);\n    // } else{\n    //     //refund it\n    //      emit generalInfo(_productId,\"faile borr - not enough dough\");\n\n    //     //  msg.sender.transfer(msg.value);\n    //     msg.sender.call.value(msg.value)(\"\");\n\n    // }\n}\n\nfunction startRentalBoth(uint _productId) internal {\n    RentalExchange storage rental = rentalById[_productId];\n    emit generalInfo(_productId,\"both called -- not necesarily 2\");\n\n\n    //there should be some way if the lister hasn't confirmed in 48 hours, the refund goes to the borrower\n    //this might be done using ethereumclock https://blog.chronologic.network/schedule-your-transaction-now-using-mycrypto-and-myetherwallet-17b48166b412\n     \n    uint price = rental.rentalTotalPrice+rental.rentalDeposit;\n    emit generalInfo(address(this).balance,\"before number is balance of contract\");\n    emit generalInfo(price,\"totall amount required deposit and price\");\n\n    if (rental.startVotes == 2 && address(this).balance >= price){\n        rental.status = RentalStatus.Started;\n        emit rentalIsStartedByBoth(_productId, rental.idInTransactsDb, \"started both\");\n    }\n    \n\n}\n\n//BOTH must sign off on completing rental\nfunction closeRentalByLister(uint _productId) public {\n    RentalExchange storage rental = rentalById[_productId];\n    emit generalInfo(_productId,\"lose lister stage 1\");\n\n    require(\n            rental.completeVotedAlready[msg.sender] == false,\n            \"Sender already tried to complete rental.\"\n    );\n    require(\n        rental.lister == msg.sender,\n        \"Sender is not lister.\"\n    );\n    require(\n         uint(rental.status) == uint(RentalStatus.Started),\n        \"rental status must be started alrady.\"\n    );\n\n    //  if (rental.completeVotedAlready[msg.sender]){\n    //     emit generalInfo(_productId,\"closed already vote lister\");\n    //     return;\n    // }\n    emit generalInfo(_productId,\"close lister stage 2\");\n\n    // emit whatistatus(\"rental.status\",rental.status,uint(rental.status) == uint(RentalStatus.Started) );\n    // emit whatistatus(\"enum status\",RentalStatus.Started,uint(rental.status) == uint(RentalStatus.Started) );\n\n    // if (rental.lister == msg.sender && uint(rental.status) == uint(RentalStatus.Started)){\n    rental.completeVotes = rental.completeVotes + 1;\n    rental.completeVotedAlready[msg.sender]=true;\n\n    closeRentalBoth(_productId);\n    // }\n}\n\nfunction closeRentalByBorrower(uint _productId) public {\n    RentalExchange storage rental = rentalById[_productId];\n    emit generalInfo(_productId,\"close borr stage 1\");\n\n\n    require(\n        rental.completeVotedAlready[msg.sender] == false,\n        \"Sender already tried to complete rental.\"\n    );\n    require(\n        rental.borrower == msg.sender,\n        \"Sender is not borrower.\"\n    );\n    require(\n         uint(rental.status) == uint(RentalStatus.Started),\n        \"rental status must be started alrady.\"\n    );\n    // if (rental.completeVotedAlready[msg.sender]){\n    //     emit generalInfo(_productId,\"closed already vote borrow\");\n\n    //     return;\n    // }\n    // addrez\n    \n    //check to make sure its same address who started it and that they send the right amount\n    // if (msg.sender == rental.borrower && uint(rental.status) == uint(RentalStatus.Started)){\n        \n    rental.completeVotes = rental.completeVotes + 1;\n    rental.completeVotedAlready[msg.sender]=true;\n    emit generalInfo(_productId,\"close borr stage 2\");\n\n    closeRentalBoth(_productId);\n        \n    // }\n}\n\nfunction closeRentalBoth(uint _productId) internal {\n    RentalExchange storage rental = rentalById[_productId];\n    emit generalInfo(_productId,\"complete both stage 1\");\n\n    emit generalInfo(address(this).balance,\"xxx0 balance of contract\");\n\n    // require(\n    //     rental.completeVotes == 2,\n    //     \"both parties must end rental to end, only 0 or 1 has.\"\n    // );\n    \n    if (rental.completeVotes == 2){\n        rental.status = RentalStatus.Completed;\n        emit rentalIsClosedByBoth(_productId, rental.idInTransactsDb, \"complete both stage 2\");\n        \n        //should be refund to borrower rental.amountSentByBorrower minus rental.rentalTotalPrice\n        uint refundAmount = rental.amountSentByBorrower - rental.rentalTotalPrice;\n        \n        // emit rentalIsStartedByBoth(address(this).balance,\"before balance of contract\");\n        rental.borrower.call.value(refundAmount)(\"\");\n        rental.lister.call.value(rental.rentalTotalPrice)(\"\");\n\n\n        // emit rentalIsStartedByBoth(address(this).balance,\"aftter__ balance of contract\");\n\n        // emit soemthing that says payment has gone out???\n    }\n}\nfunction getBalance(uint _productId) public returns (uint){\n        emit generalInfo(address(this).balance,\"call balance of contract\");\n        return address(this).balance;\n\n}\n\n\n// here we include a third party if users click to escalate/contest rental at close\nfunction contestTransactionAddEscrow(uint _productId, string memory message) public {\n    //message will be from user to explain situation\n    \n    //probably best to have me as a the escorw - take a 2% fee of rental price and 2% fee of deposit\n    //get new user somehow and allow theif at address\n    //OR give them a special password and they can vote\n}\n\nfunction arbiterVoteEscrow(uint _productId, uint reverseOrCompleteTransaction) public {\n    //parameter will be 0 to reverse or 1 to complete transaction\n    RentalExchange memory rental = rentalById[_productId];\n    \n    if (reverseOrCompleteTransaction == 1){\n        rental.completeVotes = 2;\n        closeRentalBoth(_productId);\n    } else {\n        reverseStartedTransaction(_productId);\n    }\n}\n\n// function reverseStartedTransactionBeforeLister(uint _productId) internal {\n//     RentalExchange memory rental = rentalById[_productId];\n//     rental.status = RentalStatus.Contested;\n//     emit rentalIsClosedByBoth(_productId,\"contestedFailed  -refunding\");\n//     rental.borrower.call.value(rental.amountSentByBorrower)(\"\");\n// }\n\nfunction reverseStartedTransaction(uint _productId) internal {\n    RentalExchange memory rental = rentalById[_productId];\n    rental.status = RentalStatus.Contested;\n    emit generalInfo(_productId,\"contestedFailed  -refunding\");\n    \n    // rental.borrower.transfer(rental.rentalDeposit);\n    // rental.borrower.transfer(rental.rentalTotalPrice);\n    \n    rental.borrower.call.value(rental.amountSentByBorrower)(\"\");\n}\n\nfunction getStartVotes(uint _productId) public returns (uint){\n     RentalExchange memory rental = rentalById[_productId];\n     emit vottt(_productId,rental.startVotes);\n\n     return (rental.startVotes);\n}\n\n// function uintToString(uint v) public pure returns (string memory str) {\n//     uint maxlength = 100;\n//     bytes memory reversed = new bytes(maxlength);\n//     uint i = 0;\n//     while (v != 0) {\n//         uint remainder = v % 10;\n//         v = v / 10;\n//         reversed[i++] = byte(uint8(48 + remainder));\n//     }\n//     bytes memory s = new bytes(i);\n//     for (uint j = 0; j < i; j++) {\n//         s[j] = reversed[i - j - 1];\n//     }\n//     str = string(s);\n// }\n\nfunction getRental(uint _productId) public view returns (uint, string memory, uint, uint, uint, uint, uint, uint, RentalStatus) {\n      RentalExchange memory rental = rentalById[_productId];\n      return (rental.id, rental.itemName, rental.idInCrListingsDb, rental.idInTransactsDb, rental.rentalStartTime, rental.rentalEndTime,\n          rental.rentalTotalPrice, rental.rentalDeposit, rental.status);\n    }\n \n}  ",
  "sourcePath": "/Users/galen/Documents/eth_chap4_ecommerce/contracts/Chainrenter.sol",
  "compiler": {
    "name": "solc",
    "version": "0.5.8+commit.23d335f2.Emscripten.clang"
  },
  "schemaVersion": "3.0.11",
  "updatedAt": "2019-10-09T22:19:37.815Z",
  "devdoc": {
    "methods": {}
  },
  "userdoc": {
    "methods": {}
  }
}